{
  "contractName": "StandardToken",
  "abi": [
    {
      "constant": true,
      "inputs": [],
      "name": "totalSupply",
      "outputs": [
        {
          "name": "",
          "type": "uint256"
        }
      ],
      "payable": false,
      "stateMutability": "view",
      "type": "function"
    },
    {
      "anonymous": false,
      "inputs": [
        {
          "indexed": true,
          "name": "_from",
          "type": "address"
        },
        {
          "indexed": true,
          "name": "_to",
          "type": "address"
        },
        {
          "indexed": false,
          "name": "_value",
          "type": "uint256"
        }
      ],
      "name": "Transfer",
      "type": "event"
    },
    {
      "anonymous": false,
      "inputs": [
        {
          "indexed": true,
          "name": "_owner",
          "type": "address"
        },
        {
          "indexed": true,
          "name": "_spender",
          "type": "address"
        },
        {
          "indexed": false,
          "name": "_value",
          "type": "uint256"
        }
      ],
      "name": "Approval",
      "type": "event"
    },
    {
      "constant": false,
      "inputs": [
        {
          "name": "_to",
          "type": "address"
        },
        {
          "name": "_value",
          "type": "uint256"
        }
      ],
      "name": "transfer",
      "outputs": [
        {
          "name": "success",
          "type": "bool"
        }
      ],
      "payable": false,
      "stateMutability": "nonpayable",
      "type": "function"
    },
    {
      "constant": false,
      "inputs": [
        {
          "name": "_from",
          "type": "address"
        },
        {
          "name": "_to",
          "type": "address"
        },
        {
          "name": "_value",
          "type": "uint256"
        }
      ],
      "name": "transferFrom",
      "outputs": [
        {
          "name": "success",
          "type": "bool"
        }
      ],
      "payable": false,
      "stateMutability": "nonpayable",
      "type": "function"
    },
    {
      "constant": true,
      "inputs": [
        {
          "name": "_owner",
          "type": "address"
        }
      ],
      "name": "balanceOf",
      "outputs": [
        {
          "name": "balance",
          "type": "uint256"
        }
      ],
      "payable": false,
      "stateMutability": "view",
      "type": "function"
    },
    {
      "constant": false,
      "inputs": [
        {
          "name": "_spender",
          "type": "address"
        },
        {
          "name": "_value",
          "type": "uint256"
        }
      ],
      "name": "approve",
      "outputs": [
        {
          "name": "success",
          "type": "bool"
        }
      ],
      "payable": false,
      "stateMutability": "nonpayable",
      "type": "function"
    },
    {
      "constant": true,
      "inputs": [
        {
          "name": "_owner",
          "type": "address"
        },
        {
          "name": "_spender",
          "type": "address"
        }
      ],
      "name": "allowance",
      "outputs": [
        {
          "name": "remaining",
          "type": "uint256"
        }
      ],
      "payable": false,
      "stateMutability": "view",
      "type": "function"
    }
  ],
  "bytecode": "0x608060405234801561001057600080fd5b50610897806100206000396000f300608060405260043610610078576000357c0100000000000000000000000000000000000000000000000000000000900463ffffffff168063095ea7b31461007d57806318160ddd146100e257806323b872dd1461010d57806370a0823114610192578063a9059cbb146101e9578063dd62ed3e1461024e575b600080fd5b34801561008957600080fd5b506100c8600480360381019080803573ffffffffffffffffffffffffffffffffffffffff169060200190929190803590602001909291905050506102c5565b604051808215151515815260200191505060405180910390f35b3480156100ee57600080fd5b506100f76103b7565b6040518082815260200191505060405180910390f35b34801561011957600080fd5b50610178600480360381019080803573ffffffffffffffffffffffffffffffffffffffff169060200190929190803573ffffffffffffffffffffffffffffffffffffffff169060200190929190803590602001909291905050506103bd565b604051808215151515815260200191505060405180910390f35b34801561019e57600080fd5b506101d3600480360381019080803573ffffffffffffffffffffffffffffffffffffffff169060200190929190505050610636565b6040518082815260200191505060405180910390f35b3480156101f557600080fd5b50610234600480360381019080803573ffffffffffffffffffffffffffffffffffffffff1690602001909291908035906020019092919050505061067e565b604051808215151515815260200191505060405180910390f35b34801561025a57600080fd5b506102af600480360381019080803573ffffffffffffffffffffffffffffffffffffffff169060200190929190803573ffffffffffffffffffffffffffffffffffffffff1690602001909291905050506107e4565b6040518082815260200191505060405180910390f35b600081600160003373ffffffffffffffffffffffffffffffffffffffff1673ffffffffffffffffffffffffffffffffffffffff16815260200190815260200160002060008573ffffffffffffffffffffffffffffffffffffffff1673ffffffffffffffffffffffffffffffffffffffff168152602001908152602001600020819055508273ffffffffffffffffffffffffffffffffffffffff163373ffffffffffffffffffffffffffffffffffffffff167f8c5be1e5ebec7d5bd14f71427d1e84f3dd0314c0f7b2291e5b200ac8c7c3b925846040518082815260200191505060405180910390a36001905092915050565b60025481565b6000816000808673ffffffffffffffffffffffffffffffffffffffff1673ffffffffffffffffffffffffffffffffffffffff1681526020019081526020016000205410158015610489575081600160008673ffffffffffffffffffffffffffffffffffffffff1673ffffffffffffffffffffffffffffffffffffffff16815260200190815260200160002060003373ffffffffffffffffffffffffffffffffffffffff1673ffffffffffffffffffffffffffffffffffffffff1681526020019081526020016000205410155b80156104955750600082115b1561062a57816000808573ffffffffffffffffffffffffffffffffffffffff1673ffffffffffffffffffffffffffffffffffffffff16815260200190815260200160002060008282540192505081905550816000808673ffffffffffffffffffffffffffffffffffffffff1673ffffffffffffffffffffffffffffffffffffffff1681526020019081526020016000206000828254039250508190555081600160008673ffffffffffffffffffffffffffffffffffffffff1673ffffffffffffffffffffffffffffffffffffffff16815260200190815260200160002060003373ffffffffffffffffffffffffffffffffffffffff1673ffffffffffffffffffffffffffffffffffffffff168152602001908152602001600020600082825403925050819055508273ffffffffffffffffffffffffffffffffffffffff168473ffffffffffffffffffffffffffffffffffffffff167fddf252ad1be2c89b69c2b068fc378daa952ba7f163c4a11628f55a4df523b3ef846040518082815260200191505060405180910390a36001905061062f565b600090505b9392505050565b60008060008373ffffffffffffffffffffffffffffffffffffffff1673ffffffffffffffffffffffffffffffffffffffff168152602001908152602001600020549050919050565b6000816000803373ffffffffffffffffffffffffffffffffffffffff1673ffffffffffffffffffffffffffffffffffffffff16815260200190815260200160002054101580156106ce5750600082115b156107d957816000803373ffffffffffffffffffffffffffffffffffffffff1673ffffffffffffffffffffffffffffffffffffffff16815260200190815260200160002060008282540392505081905550816000808573ffffffffffffffffffffffffffffffffffffffff1673ffffffffffffffffffffffffffffffffffffffff168152602001908152602001600020600082825401925050819055508273ffffffffffffffffffffffffffffffffffffffff163373ffffffffffffffffffffffffffffffffffffffff167fddf252ad1be2c89b69c2b068fc378daa952ba7f163c4a11628f55a4df523b3ef846040518082815260200191505060405180910390a3600190506107de565b600090505b92915050565b6000600160008473ffffffffffffffffffffffffffffffffffffffff1673ffffffffffffffffffffffffffffffffffffffff16815260200190815260200160002060008373ffffffffffffffffffffffffffffffffffffffff1673ffffffffffffffffffffffffffffffffffffffff168152602001908152602001600020549050929150505600a165627a7a7230582024eb21437235d9ee9847916158bb8bdfad9d634ee8176d29680cf2bb89cbd4070029",
  "source": "pragma solidity ^0.4.18;\r\n\r\ncontract Token {\r\n\r\n    /// @return total amount of tokens\r\n    function totalSupply() constant returns (uint256 supply) {}\r\n\r\n    /// @param _owner The address from which the balance will be retrieved\r\n    /// @return The balance\r\n    function balanceOf(address _owner) constant returns (uint256 balance) {}\r\n\r\n    /// @notice send `_value` token to `_to` from `msg.sender`\r\n    /// @param _to The address of the recipient\r\n    /// @param _value The amount of token to be transferred\r\n    /// @return Whether the transfer was successful or not\r\n    function transfer(address _to, uint256 _value) returns (bool success) {}\r\n\r\n    /// @notice send `_value` token to `_to` from `_from` on the condition it is approved by `_from`\r\n    /// @param _from The address of the sender\r\n    /// @param _to The address of the recipient\r\n    /// @param _value The amount of token to be transferred\r\n    /// @return Whether the transfer was successful or not\r\n    function transferFrom(address _from, address _to, uint256 _value) returns (bool success) {}\r\n\r\n    /// @notice `msg.sender` approves `_addr` to spend `_value` tokens\r\n    /// @param _spender The address of the account able to transfer the tokens\r\n    /// @param _value The amount of wei to be approved for transfer\r\n    /// @return Whether the approval was successful or not\r\n    function approve(address _spender, uint256 _value) returns (bool success) {}\r\n\r\n    /// @param _owner The address of the account owning tokens\r\n    /// @param _spender The address of the account able to transfer the tokens\r\n    /// @return Amount of remaining tokens allowed to spent\r\n    function allowance(address _owner, address _spender) constant returns (uint256 remaining) {}\r\n\r\n    event Transfer(address indexed _from, address indexed _to, uint256 _value);\r\n    event Approval(address indexed _owner, address indexed _spender, uint256 _value);\r\n\r\n}\r\n\r\ncontract StandardToken is Token {\r\n\r\n    function transfer(address _to, uint256 _value) returns (bool success) {\r\n        //Default assumes totalSupply can't be over max (2^256 - 1).\r\n        //If your token leaves out totalSupply and can issue more tokens as time goes on, you need to check if it doesn't wrap.\r\n        //Replace the if with this one instead.\r\n        //if (balances[msg.sender] >= _value && balances[_to] + _value > balances[_to]) {\r\n        if (balances[msg.sender] >= _value && _value > 0) {\r\n            balances[msg.sender] -= _value;\r\n            balances[_to] += _value;\r\n            Transfer(msg.sender, _to, _value);\r\n            return true;\r\n        } else { return false; }\r\n    }\r\n\r\n    function transferFrom(address _from, address _to, uint256 _value) returns (bool success) {\r\n        //same as above. Replace this line with the following if you want to protect against wrapping uints.\r\n        //if (balances[_from] >= _value && allowed[_from][msg.sender] >= _value && balances[_to] + _value > balances[_to]) {\r\n        if (balances[_from] >= _value && allowed[_from][msg.sender] >= _value && _value > 0) {\r\n            balances[_to] += _value;\r\n            balances[_from] -= _value;\r\n            allowed[_from][msg.sender] -= _value;\r\n            Transfer(_from, _to, _value);\r\n            return true;\r\n        } else { return false; }\r\n    }\r\n\r\n    function balanceOf(address _owner) constant returns (uint256 balance) {\r\n        return balances[_owner];\r\n    }\r\n\r\n    function approve(address _spender, uint256 _value) returns (bool success) {\r\n        allowed[msg.sender][_spender] = _value;\r\n        Approval(msg.sender, _spender, _value);\r\n        return true;\r\n    }\r\n\r\n    function allowance(address _owner, address _spender) constant returns (uint256 remaining) {\r\n      return allowed[_owner][_spender];\r\n    }\r\n\r\n    mapping (address => uint256) balances;\r\n    mapping (address => mapping (address => uint256)) allowed;\r\n    uint256 public totalSupply;\r\n}\r\n\r\ncontract TESCoin is StandardToken { // CHANGE THIS. Update the contract name.\r\n\r\n    /* Public variables of the token */\r\n\r\n    /*\r\n    NOTE:\r\n    The following variables are OPTIONAL vanities. One does not have to include them.\r\n    They allow one to customise the token contract & in no way influences the core functionality.\r\n    Some wallets/interfaces might not even bother to look at this information.\r\n    */\r\n    string public name;                   // Token Name\r\n    uint8 public decimals;                // How many decimals to show. To be standard complicant keep it 18\r\n    string public symbol;                 // An identifier: eg SBX, XPR etc..\r\n    string public version = 'H1.0'; \r\n    uint256 public unitsOneEthCanBuy;     // How many units of your coin can be bought by 1 ETH?\r\n    uint256 public totalEthInWei;         // WEI is the smallest unit of ETH (the equivalent of cent in USD or satoshi in BTC). We'll store the total ETH raised via our ICO here.  \r\n    address public fundsWallet;           // Where should the raised ETH go?\r\n\r\n    // This is a constructor function \r\n    // which means the following function name has to match the contract name declared above\r\n    constructor () {\r\n        balances[msg.sender] = 100000;               // Give the creator all initial tokens. This is set to 1000 for example. If you want your initial tokens to be X and your decimal is 5, set this value to X * 100000. (CHANGE THIS)\r\n        totalSupply = 100000;                        // Update total supply (1000 for example) (CHANGE THIS)\r\n        name = \"TESCoin\";                                   // Set the name for display purposes (CHANGE THIS)\r\n        decimals = 2;                                               // Amount of decimals for display purposes (CHANGE THIS)\r\n        symbol = \"TES\";                                             // Set the symbol for display purposes (CHANGE THIS)\r\n        unitsOneEthCanBuy = 10;                                      // Set the price of your token for the ICO (CHANGE THIS)\r\n        fundsWallet = msg.sender;                                    // The owner of the contract gets ETH\r\n    }\r\n\r\n    function() payable{\r\n        totalEthInWei = totalEthInWei + msg.value;\r\n        uint256 amount = msg.value * unitsOneEthCanBuy;\r\n        require(balances[fundsWallet] >= amount);\r\n\r\n        balances[fundsWallet] = balances[fundsWallet] - amount;\r\n        balances[msg.sender] = balances[msg.sender] + amount;\r\n\r\n        Transfer(fundsWallet, msg.sender, amount); // Broadcast a message to the blockchain\r\n\r\n        //Transfer ether to fundsWallet\r\n        fundsWallet.transfer(msg.value);                               \r\n    }\r\n\r\n    /* Approves and then calls the receiving contract */\r\n    function approveAndCall(address _spender, uint256 _value, bytes _extraData) returns (bool success) {\r\n        allowed[msg.sender][_spender] = _value;\r\n        Approval(msg.sender, _spender, _value);\r\n\r\n        //call the receiveApproval function on the contract you want to be notified. This crafts the function signature manually so one doesn't have to include a contract in here just for this.\r\n        //receiveApproval(address _from, uint256 _value, address _tokenContract, bytes _extraData)\r\n        //it is assumed that when does this that the call *should* succeed, otherwise one would use vanilla approve instead.\r\n        if(!_spender.call(bytes4(bytes32(sha3(\"receiveApproval(address,uint256,address,bytes)\"))), msg.sender, _value, this, _extraData)) { throw; }\r\n        return true;\r\n    }\r\n}",
  "sourcePath": "C:\\Users\\User\\Desktop\\모델압축\\dApp_deploy_ERC20\\ERC20_test\\contracts\\TesCoin.sol",
  "compiler": {
    "name": "solc",
    "version": "0.4.25+commit.59dbf8f1.Emscripten.clang"
  },
  "schemaVersion": "2.0.2",
  "updatedAt": "2021-06-30T04:57:06.485Z"
}